:1000000000000100590100005F01000063010000D1
:10001000D5010000D901000021020000000000000D
:100020000000000000000000000000006902000065
:100030006D02000000000000710200005505000084
:100040008502000000B583B000F036FA304B314A2B
:100050001360314A1360314B314A03E052F8041BFC
:1000600043F8041B2F498B42F8D32A4B1A682E4BB6
:100070009A4200D0FEE7284B1A682C4B9A42F9D1DD
:10008000234B2B4A13602B4A13602B4B02E00022B8
:1000900043F8042B294A9342F9D3254B1B6813B923
:1000A000244B1B6803B1FEE700F012FA694601A871
:1000B00000F022F9224C234BE41AA410002504E09E
:1000C000204B53F8253098470135AC42F8DC1E4CE4
:1000D0001E4BE41AA410002504E01C4B53F82530F5
:1000E00098470135AC42F8DC0099019800F004FA19
:1000F0000546174C174BE41AA41004E0013C154BBD
:1001000053F824309847002CF8DC284600F0D0F84B
:10011000BABADECA008000008480000000800000BF
:10012000840F00008880000078563412325476988C
:100130008880000028810000888000002C81000059
:10014000B0020000B0020000B0020000B0020000E7
:10015000B0020000B002000008B5FFF773FF00BE58
:10016000FEE71EF0040F0CBFEFF30880EFF30980E9
:100170007146414A10472DE9F04182B004460D46D0
:10018000124B5F6BD3F838809E6A1B6B13F0020F23
:1001900003D00E4BDB6A002B0BDB0D4800F0E8F8B8
:1001A000009543463A463146204600F0FBF800BE33
:1001B000FEE74BF6AB6100F06FF90028EDD0034B82
:1001C0004FF00042DA6202B0BDE8F08100ED00E0DD
:1001D000240F000000BEFEE71EF0040F0CBFEFF37B
:1001E0000880EFF309807146244A10472DE9F04159
:1001F00082B004460D46084B5F6BD3F838809E6A88
:10020000064800F0B5F8009543463A463146204688
:1002100000F0C8F800BEFEE700ED00E0340F00007B
:100220001EF0040F0CBFEFF30880EFF30980714656
:10023000134A10472DE9F04182B004460D46084BA1
:100240005F6BD3F838809E6A064800F091F80095FD
:1002500043463A463146204600F0A4F800BEFEE789
:1002600000ED00E0400F000000BEFEE700BEFEE72C
:1002700000BEFEE77047000077010000ED010000BE
:0602800035020000FEE75C
:10028800840F00000080000088800000840F0000B8
:100298000000001000000010888000002C81000081
:0802A80000000010000000102E
:1002B000FEE7000008B503460C4A12685AB10B4A23
:1002C0001068033323F003030344094A934206D81A
:1002D000064A136008BD054A06491160EFE700F0C1
:1002E0003DF90C2303604FF0FF30F3E78C800000F2
:1002F00000FC00002C81000001230360014B0B6017
:10030000704700BF048000002DE9F04385B004462B
:100310000F46435633BB042528462146ABBE044650
:10032000384605B0BDE8F08314F901CB04AA1A449D
:1003300002F810CC0133AB42F6D304AA13440022D6
:1003400003F8102C4FF00408E94640464946ABBE7E
:100350008046761B002EE3D03546102E28BF102590
:100360000023E8E70E46F5E708B5FFF7CDFF08BD27
:100370000FB400B583B004AB53F8042B0193802174
:10038000074800F01DF9002804DC03B05DF804EB19
:1003900004B0704701460248FFF7E6FFF5E700BFEB
:1003A00098800000F8B504460D4617461E462748BB
:1003B000FFF7DEFF21682648FFF7DAFF616825486E
:1003C000FFF7D6FFA1682448FFF7D2FFE168234872
:1003D000FFF7CEFF21692248FFF7CAFF6169214874
:1003E000FFF7C6FFA1692048FFF7C2FFE1691F4878
:1003F000FFF7BEFF1E48FFF7BBFF29461D48FFF76A
:10040000B7FF1D4CE16A1D48FFF7B2FF216B1C4886
:10041000FFF7AEFFE16B1B48FFF7AAFF15F0800F57
:100420000AD115F4004F0CD11748FFF7A1FF069928
:100430001648FFF79DFFF8BD39461548FFF798FFAE
:10044000EFE731461348FFF793FFEDE7080E000092
:10045000180E0000280E0000380E0000480E0000A4
:10046000580E0000680E0000780E0000880E000094
:10047000980E0000A40E000000ED00E0B40E000095
:10048000C40E0000D40E0000040F00000C0F00008A
:10049000E40E0000F40E000083691A888A4201D03D
:1004A000002070470268033A012A01D900207047F2
:1004B000023383610120704708B500F015F8024A45
:1004C000024B9A6008BD00BF0000000000ED00E094
:1004D00008B500F001F808BD014B024A1A607047E8
:1004E0000C80000000127A00014B024A1A6070472B
:1004F0000C80000000127A000D4B1B6819680D4B30
:100500001B68194001310C4B1A6813688B42FAD1F1
:100510000329F8DD013B1360C1F10E0101EB8101FC
:100520004B00064A126803F5B97313600020704748
:100530001880000014800000108000001C80000063
:10054000034B1B681BB1024A1368013B13607047E1
:100550001881000008B5FFF7F3FF08BD014B1868CC
:10056000704700BF2080000030B51446002C0546BF
:100570001A469BB005DA8B2303604FF0FF301BB0A7
:1005800030BD4FF40273ADF80C300CBF234604F1BC
:10059000FF33029305934FF6FF7300910491ADF87A
:1005A0000E3069461E9B00F075F8431CBCBF8B23C0
:1005B0002B60002CE3D00022009B1A70DFE70000C4
:1005C00007B5009313460A46014603480068FFF743
:1005D000CBFF03B05DF804FB208000002DE9F0475D
:1005E0008E6882469E420C4690461F4638D88A89BD
:1005F00012F4906F32D0256809690133A5EB010927
:1006000065694B4405EB450505EBD5756D109D42BD
:1006100038BF1D46530531D5294600F04FFB06462D
:1006200050B90C234FF0FF30CAF80030A38943F0D3
:100630004003A381BDE8F0874A46216900F0CEFA65
:10064000A38923F4906343F08003A38126614E4481
:1006500026603E466561A5EB0905A560BE4200D94E
:100660003E4632464146206800F0C6FAA3680020A4
:100670009B1BA360236833442360DBE72A4600F01A
:1006800077FB06460028E1D15046216900F0CEFAFA
:10069000C7E700002DE9F04F98468B8907461B06F7
:1006A0000D4614469DB00ED50B6963B9402100F08C
:1006B00005FB2860286120B90C233B604FF0FF3018
:1006C000D1E040236B610023099320238DF829306A
:1006D00030234FF00109CDF80C80DFF8A4818DF8AC
:1006E0002A3023469A4613F8012B0AB1252AF9D15C
:1006F000BAEB040B0BD05B46224629463846FFF77F
:100700006DFF013000F0AA80099A5A4409929AF8C4
:100710000030002B00F0A28000234FF0FF32CDE923
:1007200005230AF1010A049307938DF853301A93B5
:100730005446052214F8011B514800F041FA049A6E
:10074000D8B9D00644BF20238DF85330110744BFD9
:100750002B238DF853309AF800302A2B15D05446AD
:1007600000204FF00A0C079A214611F8013B303B5C
:10077000092B4ED9B0B1079214E0A0EB080309FA97
:1007800003F31343A2460493D2E7039B191D1B688E
:100790000391002BBBBF5B4242F002020793079319
:1007A000B8BF049223782E2B0CD163782A2B35D135
:1007B000039B02341A1D1B680392002BB8BF4FF035
:1007C000FF330593DFF8BCA003225046217800F0E8
:1007D000F7F940B14023A0EB0A0003FA00F0049BB4
:1007E00001340343049314F8011B062226488DF8B4
:1007F000281000F0E5F9002838D0244B1BBB039BE0
:10080000073323F0070308330393099B3344099309
:1008100067E70C4601200CFB0232A5E700234FF0EE
:100820000A0C194601340593204610F8012B303A82
:10083000092A03D9002BC5D00591C3E7044601233B
:100840000CFB0121F0E703AB00932A463846104B1E
:1008500004A9AFF30080421C0646D6D1AB895B06E3
:100860003FF52CAF09981DB0BDE8F08F03AB0093A6
:100870002A463846064B04A900F07CF8EBE700BF97
:100880004E0F0000540F0000580F00000000000041
:10089000DD0500002DE9F047164699468A680B6988
:1008A00007469342B8BF1346336091F843200C4685
:1008B000DDF820800AB1013333602368990642BF16
:1008C000336802333360256815F0060506D104F15C
:1008D000190AE36832689B1AAB4228DC94F843207B
:1008E000131E226818BF012392062DD449463846AC
:1008F00004F14302C047013020D02368E56803F0CB
:100900000603042B18BF002532684FF00006A368C9
:1009100008BFAD1A226908BF25EAE5759342C4BF36
:100920009B1AED181A34B5421AD1002008E00123B1
:10093000524649463846C047013003D14FF0FF3098
:10094000BDE8F0870135C4E73020E11881F84300A5
:100950005A1C94F845102244023382F84310C5E72C
:100960000123224649463846C0470130E6D00136C9
:10097000D9E700002DE9FF470F7E9146782F80468A
:100980000C469A460C9D01F1430207D8622F0AD803
:10099000002F00F0D980582F00F0A48004F1420508
:1009A00084F842703AE0A7F16303152BF6D801A151
:1009B00051F823F00D0A0000210A00009D090000F3
:1009C0009D0900009D0900009D090000210A00000A
:1009D0009D0900009D0900009D0900009D0900007F
:1009E0002F0B0000510A0000110B00009D090000B0
:1009F0009D090000510B00009D090000510A0000F4
:100A00009D0900009D090000190B00002B681A1DAC
:100A10001B682A6004F1420584F842300123A4E0F7
:100A200020682968060601F104030AD50E682B60C8
:100A3000002E03DA2D23764284F843300A235E48E1
:100A400019E00E6810F0400F2B6018BF36B2EFE7C8
:100A50002B682068191D2960010601D51E6802E077
:100A60004606FBD51E886F2F0CBF08230A23524869
:100A7000002184F843106568002DA8BF2168A56097
:100A8000A4BF21F0040121600EB9002D4DD0154600
:100A9000B6FBF3F103FB1167C75D05F8017D37462F
:100AA000BB420E46F4D9082B0BD12368DE0708D5CC
:100AB000236961689942DEBF302305F8013C05F1E6
:100AC000FF35521B22614B4621464046CDF800A01F
:100AD00003AAFFF7DFFE01304CD14FF0FF3004B026
:100AE000BDE8F087344881F845702968236851F8DB
:100AF000046B29601D0614D5DF0744BF43F02003B3
:100B000023601EB9236823F0200323601023AFE77E
:100B1000236843F0200323607823284884F8453075
:100B2000E3E7590648BFB6B2E6E71546BBE72B68D0
:100B30002668181D6169286035061B6801D5196093
:100B400002E07006FBD51980002315462361BAE741
:100B50002B6800211A1D2A601D686268284600F073
:100B60002FF808B1401B606063682361002384F89C
:100B70004330A8E72A46494640462369D04701301A
:100B8000ABD023689B0713D4E068039B9842B8BF9F
:100B90001846A4E70123324649464046D047013073
:100BA0009BD00135E36803995B1AAB42F2DCEBE7BB
:100BB000002504F11906F5E75F0F0000700F000033
:100BC000034610B5C9B202449342184601D1002031
:100BD00003E0047801338C42F6D110BD0A449142FF
:100BE00000F1FF3300D1704710B511F8014B91426D
:100BF00003F8014FF9D110BD884210B501EB020492
:100C000002D98442234607D8431EA14208D011F8D6
:100C1000012B03F8012FF8E7014602448A4200D174
:100C200010BD13F8014D02F8014DF7E738B5054640
:100C3000002940D051F8043C0C1F002BB8BFE41829
:100C400000F0CCF81C4A136833B96360146028467E
:100C5000BDE8384000F0C8B8A34208D92068211880
:100C60008B4201BF19685B6809182160EDE71A46DD
:100C70005B680BB1A342FAD911685018A0420BD19E
:100C800020680144501883421160E0D118685B6805
:100C9000014411605360DAE702D90C232B60D6E7D8
:100CA000206821188B4201BF19685B680918216010
:100CB00063605460CBE738BD1C810000F8B5CD1CE3
:100CC00025F0030508350C2D38BF0C25002D0646F0
:100CD00001DBA94203D90C2333600020F8BD00F0EA
:100CE0007DF821490A6814469CB9204F3B6823B916
:100CF0002146304600F062F838602946304600F060
:100D00005DF8431C23D10C233046336000F06CF8AF
:100D1000E3E723685B1B17D40B2B03D923601C4428
:100D2000256004E06368A2420CBF0B60536030464C
:100D300000F05AF804F10B00231D20F00700C21A3E
:100D4000CCD01B1AA350C9E722466468CCE7C41C68
:100D500024F00304A042E3D0211A304600F02EF81C
:100D60000130DDD1CFE700BF1C81000020810000F1
:100D7000F8B5074614460E4621B91146BDE8F840BD
:100D8000FFF79CBF22B9FFF751FF25462846F8BD63
:100D900000F030F8A0420FD221463846FFF78EFF10
:100DA00005460028F2D031462246FFF717FF3146AC
:100DB0003846FFF73BFFE9E73546E7E738B500235C
:100DC000054D044608462B60FFF774FA431C02D118
:100DD0002B6803B1236038BD90800000014800F00B
:100DE00011B800BF24810000014800F00CB800BF1A
:100DF0002481000051F8043C181F002BBCBF0B5885
:100E0000C018704770477047537461636B206672F7
:100E1000616D653A0A000000205230203D202025F7
:100E20003038580A00000000205231203D20202593
:100E30003038580A00000000205232203D20202582
:100E40003038580A00000000205233203D20202571
:100E50003038580A0000000020523132203D202551
:100E60003038580A00000000204C52203D20202538
:100E70003038580A00000000205043203D20202533
:100E80003038580A0000000020505352203D2025E1
:100E90003038580A000000004653522F4641523A5B
:100EA0000A0000002043465352203D2020253038C0
:100EB000580A00002048465352203D202025303853
:100EC000580A00002044465352203D202025303847
:100ED000580A00002041465352203D20202530383A
:100EE000580A0000204D4D464152203D2025303803
:100EF000580A00002042464152203D20202530382B
:100F0000580A00004D6973630A000000204C522FFC
:100F10004558435F52455455524E3D202530385870
:100F20000A0000005B486172644661756C745D0A7A
:100F3000000000005B4275734661756C745D0A00C9
:100F40005B55736167654661756C745D0A00232D9E
:100F5000302B2000686C4C006566674546470030C2
:100F6000313233343536373839414243444546000F
:100F7000303132333435363738396162636465660F
:010F80000070
:100F840078563412948000000000000000127A00A9
:100F9400000000400F0000003CED00E000000020D5
:100FA4002480000000000000000000000000000099
:100FB400000000000000000000000000000000002D
:100FC400000000000000000000000000000000001D
:100FD400000000000000000000000000000000000D
:100FE40000000000000000000000000000000000FD
:100FF40000000000000000000000000000000000ED
:08100400000000003254769850
:0400000300000045B4
:00000001FF
